{
	"staking.sol": {
		"NftStaker": {
			"abi": [
				{
					"inputs": [],
					"stateMutability": "nonpayable",
					"type": "constructor"
				},
				{
					"inputs": [
						{
							"internalType": "address",
							"name": "operator",
							"type": "address"
						},
						{
							"internalType": "address",
							"name": "from",
							"type": "address"
						},
						{
							"internalType": "uint256",
							"name": "id",
							"type": "uint256"
						},
						{
							"internalType": "uint256",
							"name": "value",
							"type": "uint256"
						},
						{
							"internalType": "bytes",
							"name": "data",
							"type": "bytes"
						}
					],
					"name": "onERC1155Received",
					"outputs": [
						{
							"internalType": "bytes4",
							"name": "",
							"type": "bytes4"
						}
					],
					"stateMutability": "nonpayable",
					"type": "function"
				},
				{
					"inputs": [],
					"name": "parentNFT",
					"outputs": [
						{
							"internalType": "contract IERC1155",
							"name": "",
							"type": "address"
						}
					],
					"stateMutability": "view",
					"type": "function"
				},
				{
					"inputs": [
						{
							"internalType": "uint256",
							"name": "_tokenId",
							"type": "uint256"
						},
						{
							"internalType": "uint256",
							"name": "_amount",
							"type": "uint256"
						}
					],
					"name": "stake",
					"outputs": [],
					"stateMutability": "nonpayable",
					"type": "function"
				},
				{
					"inputs": [
						{
							"internalType": "address",
							"name": "",
							"type": "address"
						}
					],
					"name": "stakes",
					"outputs": [
						{
							"internalType": "uint256",
							"name": "tokenId",
							"type": "uint256"
						},
						{
							"internalType": "uint256",
							"name": "amount",
							"type": "uint256"
						},
						{
							"internalType": "uint256",
							"name": "timestamp",
							"type": "uint256"
						}
					],
					"stateMutability": "view",
					"type": "function"
				},
				{
					"inputs": [
						{
							"internalType": "address",
							"name": "",
							"type": "address"
						}
					],
					"name": "stakingTime",
					"outputs": [
						{
							"internalType": "uint256",
							"name": "",
							"type": "uint256"
						}
					],
					"stateMutability": "view",
					"type": "function"
				},
				{
					"inputs": [],
					"name": "unstake",
					"outputs": [],
					"stateMutability": "nonpayable",
					"type": "function"
				}
			],
			"devdoc": {
				"kind": "dev",
				"methods": {},
				"version": 1
			},
			"evm": {
				"assembly": "    /* \"staking.sol\":199:1534  contract NftStaker {... */\n  mstore(0x40, 0x80)\n    /* \"staking.sol\":560:696  constructor() {... */\n  callvalue\n  dup1\n  iszero\n  tag_1\n  jumpi\n  0x00\n  dup1\n  revert\ntag_1:\n  pop\n    /* \"staking.sol\":606:648  0x7DD42E364a7Bc874b629047A493Fd758a578C1Ad */\n  0x7dd42e364a7bc874b629047a493fd758a578c1ad\n    /* \"staking.sol\":585:594  parentNFT */\n  0x00\n  dup1\n    /* \"staking.sol\":585:649  parentNFT = IERC1155(0x7DD42E364a7Bc874b629047A493Fd758a578C1Ad) */\n  0x0100\n  exp\n  dup2\n  sload\n  dup2\n  0xffffffffffffffffffffffffffffffffffffffff\n  mul\n  not\n  and\n  swap1\n  dup4\n  0xffffffffffffffffffffffffffffffffffffffff\n  and\n  mul\n  or\n  swap1\n  sstore\n  pop\n    /* \"staking.sol\":199:1534  contract NftStaker {... */\n  dataSize(sub_0)\n  dup1\n  dataOffset(sub_0)\n  0x00\n  codecopy\n  0x00\n  return\nstop\n\nsub_0: assembly {\n        /* \"staking.sol\":199:1534  contract NftStaker {... */\n      mstore(0x40, 0x80)\n      callvalue\n      dup1\n      iszero\n      tag_1\n      jumpi\n      0x00\n      dup1\n      revert\n    tag_1:\n      pop\n      jumpi(tag_2, lt(calldatasize, 0x04))\n      shr(0xe0, calldataload(0x00))\n      dup1\n      0x16934fc4\n      eq\n      tag_3\n      jumpi\n      dup1\n      0x2def6620\n      eq\n      tag_4\n      jumpi\n      dup1\n      0x583d42fd\n      eq\n      tag_5\n      jumpi\n      dup1\n      0x7b0472f0\n      eq\n      tag_6\n      jumpi\n      dup1\n      0xb8e33fb2\n      eq\n      tag_7\n      jumpi\n      dup1\n      0xf23a6e61\n      eq\n      tag_8\n      jumpi\n    tag_2:\n      0x00\n      dup1\n      revert\n        /* \"staking.sol\":411:450  mapping(address => Stake) public stakes */\n    tag_3:\n      tag_9\n      0x04\n      dup1\n      calldatasize\n      sub\n      dup2\n      add\n      swap1\n      tag_10\n      swap2\n      swap1\n      tag_11\n      jump\t// in\n    tag_10:\n      tag_12\n      jump\t// in\n    tag_9:\n      mload(0x40)\n      tag_13\n      swap4\n      swap3\n      swap2\n      swap1\n      tag_14\n      jump\t// in\n    tag_13:\n      mload(0x40)\n      dup1\n      swap2\n      sub\n      swap1\n      return\n        /* \"staking.sol\":943:1226  function unstake() public {... */\n    tag_4:\n      tag_15\n      tag_16\n      jump\t// in\n    tag_15:\n      stop\n        /* \"staking.sol\":501:547  mapping(address => uint256) public stakingTime */\n    tag_5:\n      tag_17\n      0x04\n      dup1\n      calldatasize\n      sub\n      dup2\n      add\n      swap1\n      tag_18\n      swap2\n      swap1\n      tag_11\n      jump\t// in\n    tag_18:\n      tag_19\n      jump\t// in\n    tag_17:\n      mload(0x40)\n      tag_20\n      swap2\n      swap1\n      tag_21\n      jump\t// in\n    tag_20:\n      mload(0x40)\n      dup1\n      swap2\n      sub\n      swap1\n      return\n        /* \"staking.sol\":704:934  function stake(uint256 _tokenId, uint256 _amount) public {... */\n    tag_6:\n      tag_22\n      0x04\n      dup1\n      calldatasize\n      sub\n      dup2\n      add\n      swap1\n      tag_23\n      swap2\n      swap1\n      tag_24\n      jump\t// in\n    tag_23:\n      tag_25\n      jump\t// in\n    tag_22:\n      stop\n        /* \"staking.sol\":225:250  IERC1155 public parentNFT */\n    tag_7:\n      tag_26\n      tag_27\n      jump\t// in\n    tag_26:\n      mload(0x40)\n      tag_28\n      swap2\n      swap1\n      tag_29\n      jump\t// in\n    tag_28:\n      mload(0x40)\n      dup1\n      swap2\n      sub\n      swap1\n      return\n        /* \"staking.sol\":1241:1529  function onERC1155Received(... */\n    tag_8:\n      tag_30\n      0x04\n      dup1\n      calldatasize\n      sub\n      dup2\n      add\n      swap1\n      tag_31\n      swap2\n      swap1\n      tag_32\n      jump\t// in\n    tag_31:\n      tag_33\n      jump\t// in\n    tag_30:\n      mload(0x40)\n      tag_34\n      swap2\n      swap1\n      tag_35\n      jump\t// in\n    tag_34:\n      mload(0x40)\n      dup1\n      swap2\n      sub\n      swap1\n      return\n        /* \"staking.sol\":411:450  mapping(address => Stake) public stakes */\n    tag_12:\n      mstore(0x20, 0x01)\n      dup1\n      0x00\n      mstore\n      keccak256(0x00, 0x40)\n      0x00\n      swap2\n      pop\n      swap1\n      pop\n      dup1\n      0x00\n      add\n      sload\n      swap1\n      dup1\n      0x01\n      add\n      sload\n      swap1\n      dup1\n      0x02\n      add\n      sload\n      swap1\n      pop\n      dup4\n      jump\t// out\n        /* \"staking.sol\":943:1226  function unstake() public {... */\n    tag_16:\n        /* \"staking.sol\":980:989  parentNFT */\n      0x00\n      dup1\n      sload\n      swap1\n      0x0100\n      exp\n      swap1\n      div\n      0xffffffffffffffffffffffffffffffffffffffff\n      and\n        /* \"staking.sol\":980:1006  parentNFT.safeTransferFrom */\n      0xffffffffffffffffffffffffffffffffffffffff\n      and\n      0xf242432a\n        /* \"staking.sol\":1015:1019  this */\n      address\n        /* \"staking.sol\":1022:1032  msg.sender */\n      caller\n        /* \"staking.sol\":1034:1040  stakes */\n      0x01\n        /* \"staking.sol\":1034:1052  stakes[msg.sender] */\n      0x00\n        /* \"staking.sol\":1041:1051  msg.sender */\n      caller\n        /* \"staking.sol\":1034:1052  stakes[msg.sender] */\n      0xffffffffffffffffffffffffffffffffffffffff\n      and\n      0xffffffffffffffffffffffffffffffffffffffff\n      and\n      dup2\n      mstore\n      0x20\n      add\n      swap1\n      dup2\n      mstore\n      0x20\n      add\n      0x00\n      keccak256\n        /* \"staking.sol\":1034:1060  stakes[msg.sender].tokenId */\n      0x00\n      add\n      sload\n        /* \"staking.sol\":1062:1068  stakes */\n      0x01\n        /* \"staking.sol\":1062:1080  stakes[msg.sender] */\n      0x00\n        /* \"staking.sol\":1069:1079  msg.sender */\n      caller\n        /* \"staking.sol\":1062:1080  stakes[msg.sender] */\n      0xffffffffffffffffffffffffffffffffffffffff\n      and\n      0xffffffffffffffffffffffffffffffffffffffff\n      and\n      dup2\n      mstore\n      0x20\n      add\n      swap1\n      dup2\n      mstore\n      0x20\n      add\n      0x00\n      keccak256\n        /* \"staking.sol\":1062:1087  stakes[msg.sender].amount */\n      0x01\n      add\n      sload\n        /* \"staking.sol\":980:1096  parentNFT.safeTransferFrom(address(this), msg.sender, stakes[msg.sender].tokenId, stakes[msg.sender].amount, \"0x00\") */\n      mload(0x40)\n      dup6\n      0xffffffff\n      and\n      0xe0\n      shl\n      dup2\n      mstore\n      0x04\n      add\n      tag_37\n      swap5\n      swap4\n      swap3\n      swap2\n      swap1\n      tag_38\n      jump\t// in\n    tag_37:\n      0x00\n      mload(0x40)\n      dup1\n      dup4\n      sub\n      dup2\n      0x00\n      dup8\n      dup1\n      extcodesize\n      iszero\n      dup1\n      iszero\n      tag_39\n      jumpi\n      0x00\n      dup1\n      revert\n    tag_39:\n      pop\n      gas\n      call\n      iszero\n      dup1\n      iszero\n      tag_41\n      jumpi\n      returndatasize\n      0x00\n      dup1\n      returndatacopy\n      revert(0x00, returndatasize)\n    tag_41:\n      pop\n      pop\n      pop\n      pop\n        /* \"staking.sol\":1153:1159  stakes */\n      0x01\n        /* \"staking.sol\":1153:1171  stakes[msg.sender] */\n      0x00\n        /* \"staking.sol\":1160:1170  msg.sender */\n      caller\n        /* \"staking.sol\":1153:1171  stakes[msg.sender] */\n      0xffffffffffffffffffffffffffffffffffffffff\n      and\n      0xffffffffffffffffffffffffffffffffffffffff\n      and\n      dup2\n      mstore\n      0x20\n      add\n      swap1\n      dup2\n      mstore\n      0x20\n      add\n      0x00\n      keccak256\n        /* \"staking.sol\":1153:1181  stakes[msg.sender].timestamp */\n      0x02\n      add\n      sload\n        /* \"staking.sol\":1135:1150  block.timestamp */\n      timestamp\n        /* \"staking.sol\":1135:1181  block.timestamp - stakes[msg.sender].timestamp */\n      tag_42\n      swap2\n      swap1\n      tag_43\n      jump\t// in\n    tag_42:\n        /* \"staking.sol\":1107:1118  stakingTime */\n      0x02\n        /* \"staking.sol\":1107:1130  stakingTime[msg.sender] */\n      0x00\n        /* \"staking.sol\":1119:1129  msg.sender */\n      caller\n        /* \"staking.sol\":1107:1130  stakingTime[msg.sender] */\n      0xffffffffffffffffffffffffffffffffffffffff\n      and\n      0xffffffffffffffffffffffffffffffffffffffff\n      and\n      dup2\n      mstore\n      0x20\n      add\n      swap1\n      dup2\n      mstore\n      0x20\n      add\n      0x00\n      keccak256\n      0x00\n        /* \"staking.sol\":1107:1182  stakingTime[msg.sender] += (block.timestamp - stakes[msg.sender].timestamp) */\n      dup3\n      dup3\n      sload\n      tag_44\n      swap2\n      swap1\n      tag_45\n      jump\t// in\n    tag_44:\n      swap3\n      pop\n      pop\n      dup2\n      swap1\n      sstore\n      pop\n        /* \"staking.sol\":1200:1206  stakes */\n      0x01\n        /* \"staking.sol\":1200:1218  stakes[msg.sender] */\n      0x00\n        /* \"staking.sol\":1207:1217  msg.sender */\n      caller\n        /* \"staking.sol\":1200:1218  stakes[msg.sender] */\n      0xffffffffffffffffffffffffffffffffffffffff\n      and\n      0xffffffffffffffffffffffffffffffffffffffff\n      and\n      dup2\n      mstore\n      0x20\n      add\n      swap1\n      dup2\n      mstore\n      0x20\n      add\n      0x00\n      keccak256\n      0x00\n        /* \"staking.sol\":1193:1218  delete stakes[msg.sender] */\n      dup1\n      dup3\n      add\n      0x00\n      swap1\n      sstore\n      0x01\n      dup3\n      add\n      0x00\n      swap1\n      sstore\n      0x02\n      dup3\n      add\n      0x00\n      swap1\n      sstore\n      pop\n      pop\n        /* \"staking.sol\":943:1226  function unstake() public {... */\n      jump\t// out\n        /* \"staking.sol\":501:547  mapping(address => uint256) public stakingTime */\n    tag_19:\n      mstore(0x20, 0x02)\n      dup1\n      0x00\n      mstore\n      keccak256(0x00, 0x40)\n      0x00\n      swap2\n      pop\n      swap1\n      pop\n      sload\n      dup2\n      jump\t// out\n        /* \"staking.sol\":704:934  function stake(uint256 _tokenId, uint256 _amount) public {... */\n    tag_25:\n        /* \"staking.sol\":793:834  Stake(_tokenId, _amount, block.timestamp) */\n      mload(0x40)\n      dup1\n      0x60\n      add\n      0x40\n      mstore\n      dup1\n        /* \"staking.sol\":799:807  _tokenId */\n      dup4\n        /* \"staking.sol\":793:834  Stake(_tokenId, _amount, block.timestamp) */\n      dup2\n      mstore\n      0x20\n      add\n        /* \"staking.sol\":809:816  _amount */\n      dup3\n        /* \"staking.sol\":793:834  Stake(_tokenId, _amount, block.timestamp) */\n      dup2\n      mstore\n      0x20\n      add\n        /* \"staking.sol\":818:833  block.timestamp */\n      timestamp\n        /* \"staking.sol\":793:834  Stake(_tokenId, _amount, block.timestamp) */\n      dup2\n      mstore\n      pop\n        /* \"staking.sol\":772:778  stakes */\n      0x01\n        /* \"staking.sol\":772:790  stakes[msg.sender] */\n      0x00\n        /* \"staking.sol\":779:789  msg.sender */\n      caller\n        /* \"staking.sol\":772:790  stakes[msg.sender] */\n      0xffffffffffffffffffffffffffffffffffffffff\n      and\n      0xffffffffffffffffffffffffffffffffffffffff\n      and\n      dup2\n      mstore\n      0x20\n      add\n      swap1\n      dup2\n      mstore\n      0x20\n      add\n      0x00\n      keccak256\n        /* \"staking.sol\":772:834  stakes[msg.sender] = Stake(_tokenId, _amount, block.timestamp) */\n      0x00\n      dup3\n      add\n      mload\n      dup2\n      0x00\n      add\n      sstore\n      0x20\n      dup3\n      add\n      mload\n      dup2\n      0x01\n      add\n      sstore\n      0x40\n      dup3\n      add\n      mload\n      dup2\n      0x02\n      add\n      sstore\n      swap1\n      pop\n      pop\n        /* \"staking.sol\":846:855  parentNFT */\n      0x00\n      dup1\n      sload\n      swap1\n      0x0100\n      exp\n      swap1\n      div\n      0xffffffffffffffffffffffffffffffffffffffff\n      and\n        /* \"staking.sol\":846:872  parentNFT.safeTransferFrom */\n      0xffffffffffffffffffffffffffffffffffffffff\n      and\n      0xf242432a\n        /* \"staking.sol\":873:883  msg.sender */\n      caller\n        /* \"staking.sol\":893:897  this */\n      address\n        /* \"staking.sol\":900:908  _tokenId */\n      dup6\n        /* \"staking.sol\":910:917  _amount */\n      dup6\n        /* \"staking.sol\":846:926  parentNFT.safeTransferFrom(msg.sender, address(this), _tokenId, _amount, \"0x00\") */\n      mload(0x40)\n      dup6\n      0xffffffff\n      and\n      0xe0\n      shl\n      dup2\n      mstore\n      0x04\n      add\n      tag_47\n      swap5\n      swap4\n      swap3\n      swap2\n      swap1\n      tag_38\n      jump\t// in\n    tag_47:\n      0x00\n      mload(0x40)\n      dup1\n      dup4\n      sub\n      dup2\n      0x00\n      dup8\n      dup1\n      extcodesize\n      iszero\n      dup1\n      iszero\n      tag_48\n      jumpi\n      0x00\n      dup1\n      revert\n    tag_48:\n      pop\n      gas\n      call\n      iszero\n      dup1\n      iszero\n      tag_50\n      jumpi\n      returndatasize\n      0x00\n      dup1\n      returndatacopy\n      revert(0x00, returndatasize)\n    tag_50:\n      pop\n      pop\n      pop\n      pop\n        /* \"staking.sol\":704:934  function stake(uint256 _tokenId, uint256 _amount) public {... */\n      pop\n      pop\n      jump\t// out\n        /* \"staking.sol\":225:250  IERC1155 public parentNFT */\n    tag_27:\n      0x00\n      dup1\n      sload\n      swap1\n      0x0100\n      exp\n      swap1\n      div\n      0xffffffffffffffffffffffffffffffffffffffff\n      and\n      dup2\n      jump\t// out\n        /* \"staking.sol\":1241:1529  function onERC1155Received(... */\n    tag_33:\n        /* \"staking.sol\":1418:1424  bytes4 */\n      0x00\n        /* \"staking.sol\":1451:1520  keccak256(\"onERC1155Received(address,address,uint256,uint256,bytes)\") */\n      0xf23a6e612e1ff4830e658fe43f4e3cb4a5f8170bd5d9e69fb5d7a7fa9e4fdf97\n        /* \"staking.sol\":1437:1521  return bytes4(keccak256(\"onERC1155Received(address,address,uint256,uint256,bytes)\")) */\n      swap1\n      pop\n        /* \"staking.sol\":1241:1529  function onERC1155Received(... */\n      swap7\n      swap6\n      pop\n      pop\n      pop\n      pop\n      pop\n      pop\n      jump\t// out\n        /* \"#utility.yul\":88:205   */\n    tag_53:\n        /* \"#utility.yul\":197:198   */\n      0x00\n        /* \"#utility.yul\":194:195   */\n      dup1\n        /* \"#utility.yul\":187:199   */\n      revert\n        /* \"#utility.yul\":211:328   */\n    tag_54:\n        /* \"#utility.yul\":320:321   */\n      0x00\n        /* \"#utility.yul\":317:318   */\n      dup1\n        /* \"#utility.yul\":310:322   */\n      revert\n        /* \"#utility.yul\":334:460   */\n    tag_55:\n        /* \"#utility.yul\":371:378   */\n      0x00\n        /* \"#utility.yul\":411:453   */\n      0xffffffffffffffffffffffffffffffffffffffff\n        /* \"#utility.yul\":404:409   */\n      dup3\n        /* \"#utility.yul\":400:454   */\n      and\n        /* \"#utility.yul\":389:454   */\n      swap1\n      pop\n        /* \"#utility.yul\":334:460   */\n      swap2\n      swap1\n      pop\n      jump\t// out\n        /* \"#utility.yul\":466:562   */\n    tag_56:\n        /* \"#utility.yul\":503:510   */\n      0x00\n        /* \"#utility.yul\":532:556   */\n      tag_85\n        /* \"#utility.yul\":550:555   */\n      dup3\n        /* \"#utility.yul\":532:556   */\n      tag_55\n      jump\t// in\n    tag_85:\n        /* \"#utility.yul\":521:556   */\n      swap1\n      pop\n        /* \"#utility.yul\":466:562   */\n      swap2\n      swap1\n      pop\n      jump\t// out\n        /* \"#utility.yul\":568:690   */\n    tag_57:\n        /* \"#utility.yul\":641:665   */\n      tag_87\n        /* \"#utility.yul\":659:664   */\n      dup2\n        /* \"#utility.yul\":641:665   */\n      tag_56\n      jump\t// in\n    tag_87:\n        /* \"#utility.yul\":634:639   */\n      dup2\n        /* \"#utility.yul\":631:666   */\n      eq\n        /* \"#utility.yul\":621:684   */\n      tag_88\n      jumpi\n        /* \"#utility.yul\":680:681   */\n      0x00\n        /* \"#utility.yul\":677:678   */\n      dup1\n        /* \"#utility.yul\":670:682   */\n      revert\n        /* \"#utility.yul\":621:684   */\n    tag_88:\n        /* \"#utility.yul\":568:690   */\n      pop\n      jump\t// out\n        /* \"#utility.yul\":696:835   */\n    tag_58:\n        /* \"#utility.yul\":742:747   */\n      0x00\n        /* \"#utility.yul\":780:786   */\n      dup2\n        /* \"#utility.yul\":767:787   */\n      calldataload\n        /* \"#utility.yul\":758:787   */\n      swap1\n      pop\n        /* \"#utility.yul\":796:829   */\n      tag_90\n        /* \"#utility.yul\":823:828   */\n      dup2\n        /* \"#utility.yul\":796:829   */\n      tag_57\n      jump\t// in\n    tag_90:\n        /* \"#utility.yul\":696:835   */\n      swap3\n      swap2\n      pop\n      pop\n      jump\t// out\n        /* \"#utility.yul\":841:1170   */\n    tag_11:\n        /* \"#utility.yul\":900:906   */\n      0x00\n        /* \"#utility.yul\":949:951   */\n      0x20\n        /* \"#utility.yul\":937:946   */\n      dup3\n        /* \"#utility.yul\":928:935   */\n      dup5\n        /* \"#utility.yul\":924:947   */\n      sub\n        /* \"#utility.yul\":920:952   */\n      slt\n        /* \"#utility.yul\":917:1036   */\n      iszero\n      tag_92\n      jumpi\n        /* \"#utility.yul\":955:1034   */\n      tag_93\n      tag_53\n      jump\t// in\n    tag_93:\n        /* \"#utility.yul\":917:1036   */\n    tag_92:\n        /* \"#utility.yul\":1075:1076   */\n      0x00\n        /* \"#utility.yul\":1100:1153   */\n      tag_94\n        /* \"#utility.yul\":1145:1152   */\n      dup5\n        /* \"#utility.yul\":1136:1142   */\n      dup3\n        /* \"#utility.yul\":1125:1134   */\n      dup6\n        /* \"#utility.yul\":1121:1143   */\n      add\n        /* \"#utility.yul\":1100:1153   */\n      tag_58\n      jump\t// in\n    tag_94:\n        /* \"#utility.yul\":1090:1153   */\n      swap2\n      pop\n        /* \"#utility.yul\":1046:1163   */\n      pop\n        /* \"#utility.yul\":841:1170   */\n      swap3\n      swap2\n      pop\n      pop\n      jump\t// out\n        /* \"#utility.yul\":1176:1253   */\n    tag_59:\n        /* \"#utility.yul\":1213:1220   */\n      0x00\n        /* \"#utility.yul\":1242:1247   */\n      dup2\n        /* \"#utility.yul\":1231:1247   */\n      swap1\n      pop\n        /* \"#utility.yul\":1176:1253   */\n      swap2\n      swap1\n      pop\n      jump\t// out\n        /* \"#utility.yul\":1259:1377   */\n    tag_60:\n        /* \"#utility.yul\":1346:1370   */\n      tag_97\n        /* \"#utility.yul\":1364:1369   */\n      dup2\n        /* \"#utility.yul\":1346:1370   */\n      tag_59\n      jump\t// in\n    tag_97:\n        /* \"#utility.yul\":1341:1344   */\n      dup3\n        /* \"#utility.yul\":1334:1371   */\n      mstore\n        /* \"#utility.yul\":1259:1377   */\n      pop\n      pop\n      jump\t// out\n        /* \"#utility.yul\":1383:1825   */\n    tag_14:\n        /* \"#utility.yul\":1532:1536   */\n      0x00\n        /* \"#utility.yul\":1570:1572   */\n      0x60\n        /* \"#utility.yul\":1559:1568   */\n      dup3\n        /* \"#utility.yul\":1555:1573   */\n      add\n        /* \"#utility.yul\":1547:1573   */\n      swap1\n      pop\n        /* \"#utility.yul\":1583:1654   */\n      tag_99\n        /* \"#utility.yul\":1651:1652   */\n      0x00\n        /* \"#utility.yul\":1640:1649   */\n      dup4\n        /* \"#utility.yul\":1636:1653   */\n      add\n        /* \"#utility.yul\":1627:1633   */\n      dup7\n        /* \"#utility.yul\":1583:1654   */\n      tag_60\n      jump\t// in\n    tag_99:\n        /* \"#utility.yul\":1664:1736   */\n      tag_100\n        /* \"#utility.yul\":1732:1734   */\n      0x20\n        /* \"#utility.yul\":1721:1730   */\n      dup4\n        /* \"#utility.yul\":1717:1735   */\n      add\n        /* \"#utility.yul\":1708:1714   */\n      dup6\n        /* \"#utility.yul\":1664:1736   */\n      tag_60\n      jump\t// in\n    tag_100:\n        /* \"#utility.yul\":1746:1818   */\n      tag_101\n        /* \"#utility.yul\":1814:1816   */\n      0x40\n        /* \"#utility.yul\":1803:1812   */\n      dup4\n        /* \"#utility.yul\":1799:1817   */\n      add\n        /* \"#utility.yul\":1790:1796   */\n      dup5\n        /* \"#utility.yul\":1746:1818   */\n      tag_60\n      jump\t// in\n    tag_101:\n        /* \"#utility.yul\":1383:1825   */\n      swap5\n      swap4\n      pop\n      pop\n      pop\n      pop\n      jump\t// out\n        /* \"#utility.yul\":1831:2053   */\n    tag_21:\n        /* \"#utility.yul\":1924:1928   */\n      0x00\n        /* \"#utility.yul\":1962:1964   */\n      0x20\n        /* \"#utility.yul\":1951:1960   */\n      dup3\n        /* \"#utility.yul\":1947:1965   */\n      add\n        /* \"#utility.yul\":1939:1965   */\n      swap1\n      pop\n        /* \"#utility.yul\":1975:2046   */\n      tag_103\n        /* \"#utility.yul\":2043:2044   */\n      0x00\n        /* \"#utility.yul\":2032:2041   */\n      dup4\n        /* \"#utility.yul\":2028:2045   */\n      add\n        /* \"#utility.yul\":2019:2025   */\n      dup5\n        /* \"#utility.yul\":1975:2046   */\n      tag_60\n      jump\t// in\n    tag_103:\n        /* \"#utility.yul\":1831:2053   */\n      swap3\n      swap2\n      pop\n      pop\n      jump\t// out\n        /* \"#utility.yul\":2059:2181   */\n    tag_61:\n        /* \"#utility.yul\":2132:2156   */\n      tag_105\n        /* \"#utility.yul\":2150:2155   */\n      dup2\n        /* \"#utility.yul\":2132:2156   */\n      tag_59\n      jump\t// in\n    tag_105:\n        /* \"#utility.yul\":2125:2130   */\n      dup2\n        /* \"#utility.yul\":2122:2157   */\n      eq\n        /* \"#utility.yul\":2112:2175   */\n      tag_106\n      jumpi\n        /* \"#utility.yul\":2171:2172   */\n      0x00\n        /* \"#utility.yul\":2168:2169   */\n      dup1\n        /* \"#utility.yul\":2161:2173   */\n      revert\n        /* \"#utility.yul\":2112:2175   */\n    tag_106:\n        /* \"#utility.yul\":2059:2181   */\n      pop\n      jump\t// out\n        /* \"#utility.yul\":2187:2326   */\n    tag_62:\n        /* \"#utility.yul\":2233:2238   */\n      0x00\n        /* \"#utility.yul\":2271:2277   */\n      dup2\n        /* \"#utility.yul\":2258:2278   */\n      calldataload\n        /* \"#utility.yul\":2249:2278   */\n      swap1\n      pop\n        /* \"#utility.yul\":2287:2320   */\n      tag_108\n        /* \"#utility.yul\":2314:2319   */\n      dup2\n        /* \"#utility.yul\":2287:2320   */\n      tag_61\n      jump\t// in\n    tag_108:\n        /* \"#utility.yul\":2187:2326   */\n      swap3\n      swap2\n      pop\n      pop\n      jump\t// out\n        /* \"#utility.yul\":2332:2806   */\n    tag_24:\n        /* \"#utility.yul\":2400:2406   */\n      0x00\n        /* \"#utility.yul\":2408:2414   */\n      dup1\n        /* \"#utility.yul\":2457:2459   */\n      0x40\n        /* \"#utility.yul\":2445:2454   */\n      dup4\n        /* \"#utility.yul\":2436:2443   */\n      dup6\n        /* \"#utility.yul\":2432:2455   */\n      sub\n        /* \"#utility.yul\":2428:2460   */\n      slt\n        /* \"#utility.yul\":2425:2544   */\n      iszero\n      tag_110\n      jumpi\n        /* \"#utility.yul\":2463:2542   */\n      tag_111\n      tag_53\n      jump\t// in\n    tag_111:\n        /* \"#utility.yul\":2425:2544   */\n    tag_110:\n        /* \"#utility.yul\":2583:2584   */\n      0x00\n        /* \"#utility.yul\":2608:2661   */\n      tag_112\n        /* \"#utility.yul\":2653:2660   */\n      dup6\n        /* \"#utility.yul\":2644:2650   */\n      dup3\n        /* \"#utility.yul\":2633:2642   */\n      dup7\n        /* \"#utility.yul\":2629:2651   */\n      add\n        /* \"#utility.yul\":2608:2661   */\n      tag_62\n      jump\t// in\n    tag_112:\n        /* \"#utility.yul\":2598:2661   */\n      swap3\n      pop\n        /* \"#utility.yul\":2554:2671   */\n      pop\n        /* \"#utility.yul\":2710:2712   */\n      0x20\n        /* \"#utility.yul\":2736:2789   */\n      tag_113\n        /* \"#utility.yul\":2781:2788   */\n      dup6\n        /* \"#utility.yul\":2772:2778   */\n      dup3\n        /* \"#utility.yul\":2761:2770   */\n      dup7\n        /* \"#utility.yul\":2757:2779   */\n      add\n        /* \"#utility.yul\":2736:2789   */\n      tag_62\n      jump\t// in\n    tag_113:\n        /* \"#utility.yul\":2726:2789   */\n      swap2\n      pop\n        /* \"#utility.yul\":2681:2799   */\n      pop\n        /* \"#utility.yul\":2332:2806   */\n      swap3\n      pop\n      swap3\n      swap1\n      pop\n      jump\t// out\n        /* \"#utility.yul\":2812:2872   */\n    tag_63:\n        /* \"#utility.yul\":2840:2843   */\n      0x00\n        /* \"#utility.yul\":2861:2866   */\n      dup2\n        /* \"#utility.yul\":2854:2866   */\n      swap1\n      pop\n        /* \"#utility.yul\":2812:2872   */\n      swap2\n      swap1\n      pop\n      jump\t// out\n        /* \"#utility.yul\":2878:3020   */\n    tag_64:\n        /* \"#utility.yul\":2928:2937   */\n      0x00\n        /* \"#utility.yul\":2961:3014   */\n      tag_116\n        /* \"#utility.yul\":2979:3013   */\n      tag_117\n        /* \"#utility.yul\":2988:3012   */\n      tag_118\n        /* \"#utility.yul\":3006:3011   */\n      dup5\n        /* \"#utility.yul\":2988:3012   */\n      tag_55\n      jump\t// in\n    tag_118:\n        /* \"#utility.yul\":2979:3013   */\n      tag_63\n      jump\t// in\n    tag_117:\n        /* \"#utility.yul\":2961:3014   */\n      tag_55\n      jump\t// in\n    tag_116:\n        /* \"#utility.yul\":2948:3014   */\n      swap1\n      pop\n        /* \"#utility.yul\":2878:3020   */\n      swap2\n      swap1\n      pop\n      jump\t// out\n        /* \"#utility.yul\":3026:3152   */\n    tag_65:\n        /* \"#utility.yul\":3076:3085   */\n      0x00\n        /* \"#utility.yul\":3109:3146   */\n      tag_120\n        /* \"#utility.yul\":3140:3145   */\n      dup3\n        /* \"#utility.yul\":3109:3146   */\n      tag_64\n      jump\t// in\n    tag_120:\n        /* \"#utility.yul\":3096:3146   */\n      swap1\n      pop\n        /* \"#utility.yul\":3026:3152   */\n      swap2\n      swap1\n      pop\n      jump\t// out\n        /* \"#utility.yul\":3158:3300   */\n    tag_66:\n        /* \"#utility.yul\":3224:3233   */\n      0x00\n        /* \"#utility.yul\":3257:3294   */\n      tag_122\n        /* \"#utility.yul\":3288:3293   */\n      dup3\n        /* \"#utility.yul\":3257:3294   */\n      tag_65\n      jump\t// in\n    tag_122:\n        /* \"#utility.yul\":3244:3294   */\n      swap1\n      pop\n        /* \"#utility.yul\":3158:3300   */\n      swap2\n      swap1\n      pop\n      jump\t// out\n        /* \"#utility.yul\":3306:3469   */\n    tag_67:\n        /* \"#utility.yul\":3409:3462   */\n      tag_124\n        /* \"#utility.yul\":3456:3461   */\n      dup2\n        /* \"#utility.yul\":3409:3462   */\n      tag_66\n      jump\t// in\n    tag_124:\n        /* \"#utility.yul\":3404:3407   */\n      dup3\n        /* \"#utility.yul\":3397:3463   */\n      mstore\n        /* \"#utility.yul\":3306:3469   */\n      pop\n      pop\n      jump\t// out\n        /* \"#utility.yul\":3475:3729   */\n    tag_29:\n        /* \"#utility.yul\":3584:3588   */\n      0x00\n        /* \"#utility.yul\":3622:3624   */\n      0x20\n        /* \"#utility.yul\":3611:3620   */\n      dup3\n        /* \"#utility.yul\":3607:3625   */\n      add\n        /* \"#utility.yul\":3599:3625   */\n      swap1\n      pop\n        /* \"#utility.yul\":3635:3722   */\n      tag_126\n        /* \"#utility.yul\":3719:3720   */\n      0x00\n        /* \"#utility.yul\":3708:3717   */\n      dup4\n        /* \"#utility.yul\":3704:3721   */\n      add\n        /* \"#utility.yul\":3695:3701   */\n      dup5\n        /* \"#utility.yul\":3635:3722   */\n      tag_67\n      jump\t// in\n    tag_126:\n        /* \"#utility.yul\":3475:3729   */\n      swap3\n      swap2\n      pop\n      pop\n      jump\t// out\n        /* \"#utility.yul\":3735:3852   */\n    tag_68:\n        /* \"#utility.yul\":3844:3845   */\n      0x00\n        /* \"#utility.yul\":3841:3842   */\n      dup1\n        /* \"#utility.yul\":3834:3846   */\n      revert\n        /* \"#utility.yul\":3858:3975   */\n    tag_69:\n        /* \"#utility.yul\":3967:3968   */\n      0x00\n        /* \"#utility.yul\":3964:3965   */\n      dup1\n        /* \"#utility.yul\":3957:3969   */\n      revert\n        /* \"#utility.yul\":3981:4098   */\n    tag_70:\n        /* \"#utility.yul\":4090:4091   */\n      0x00\n        /* \"#utility.yul\":4087:4088   */\n      dup1\n        /* \"#utility.yul\":4080:4092   */\n      revert\n        /* \"#utility.yul\":4117:4669   */\n    tag_71:\n        /* \"#utility.yul\":4174:4182   */\n      0x00\n        /* \"#utility.yul\":4184:4190   */\n      dup1\n        /* \"#utility.yul\":4234:4237   */\n      dup4\n        /* \"#utility.yul\":4227:4231   */\n      0x1f\n        /* \"#utility.yul\":4219:4225   */\n      dup5\n        /* \"#utility.yul\":4215:4232   */\n      add\n        /* \"#utility.yul\":4211:4238   */\n      slt\n        /* \"#utility.yul\":4201:4323   */\n      tag_131\n      jumpi\n        /* \"#utility.yul\":4242:4321   */\n      tag_132\n      tag_68\n      jump\t// in\n    tag_132:\n        /* \"#utility.yul\":4201:4323   */\n    tag_131:\n        /* \"#utility.yul\":4355:4361   */\n      dup3\n        /* \"#utility.yul\":4342:4362   */\n      calldataload\n        /* \"#utility.yul\":4332:4362   */\n      swap1\n      pop\n        /* \"#utility.yul\":4385:4403   */\n      0xffffffffffffffff\n        /* \"#utility.yul\":4377:4383   */\n      dup2\n        /* \"#utility.yul\":4374:4404   */\n      gt\n        /* \"#utility.yul\":4371:4488   */\n      iszero\n      tag_133\n      jumpi\n        /* \"#utility.yul\":4407:4486   */\n      tag_134\n      tag_69\n      jump\t// in\n    tag_134:\n        /* \"#utility.yul\":4371:4488   */\n    tag_133:\n        /* \"#utility.yul\":4521:4525   */\n      0x20\n        /* \"#utility.yul\":4513:4519   */\n      dup4\n        /* \"#utility.yul\":4509:4526   */\n      add\n        /* \"#utility.yul\":4497:4526   */\n      swap2\n      pop\n        /* \"#utility.yul\":4575:4578   */\n      dup4\n        /* \"#utility.yul\":4567:4571   */\n      0x01\n        /* \"#utility.yul\":4559:4565   */\n      dup3\n        /* \"#utility.yul\":4555:4572   */\n      mul\n        /* \"#utility.yul\":4545:4553   */\n      dup4\n        /* \"#utility.yul\":4541:4573   */\n      add\n        /* \"#utility.yul\":4538:4579   */\n      gt\n        /* \"#utility.yul\":4535:4663   */\n      iszero\n      tag_135\n      jumpi\n        /* \"#utility.yul\":4582:4661   */\n      tag_136\n      tag_70\n      jump\t// in\n    tag_136:\n        /* \"#utility.yul\":4535:4663   */\n    tag_135:\n        /* \"#utility.yul\":4117:4669   */\n      swap3\n      pop\n      swap3\n      swap1\n      pop\n      jump\t// out\n        /* \"#utility.yul\":4675:5784   */\n    tag_32:\n        /* \"#utility.yul\":4781:4787   */\n      0x00\n        /* \"#utility.yul\":4789:4795   */\n      dup1\n        /* \"#utility.yul\":4797:4803   */\n      0x00\n        /* \"#utility.yul\":4805:4811   */\n      dup1\n        /* \"#utility.yul\":4813:4819   */\n      0x00\n        /* \"#utility.yul\":4821:4827   */\n      dup1\n        /* \"#utility.yul\":4870:4873   */\n      0xa0\n        /* \"#utility.yul\":4858:4867   */\n      dup8\n        /* \"#utility.yul\":4849:4856   */\n      dup10\n        /* \"#utility.yul\":4845:4868   */\n      sub\n        /* \"#utility.yul\":4841:4874   */\n      slt\n        /* \"#utility.yul\":4838:4958   */\n      iszero\n      tag_138\n      jumpi\n        /* \"#utility.yul\":4877:4956   */\n      tag_139\n      tag_53\n      jump\t// in\n    tag_139:\n        /* \"#utility.yul\":4838:4958   */\n    tag_138:\n        /* \"#utility.yul\":4997:4998   */\n      0x00\n        /* \"#utility.yul\":5022:5075   */\n      tag_140\n        /* \"#utility.yul\":5067:5074   */\n      dup10\n        /* \"#utility.yul\":5058:5064   */\n      dup3\n        /* \"#utility.yul\":5047:5056   */\n      dup11\n        /* \"#utility.yul\":5043:5065   */\n      add\n        /* \"#utility.yul\":5022:5075   */\n      tag_58\n      jump\t// in\n    tag_140:\n        /* \"#utility.yul\":5012:5075   */\n      swap7\n      pop\n        /* \"#utility.yul\":4968:5085   */\n      pop\n        /* \"#utility.yul\":5124:5126   */\n      0x20\n        /* \"#utility.yul\":5150:5203   */\n      tag_141\n        /* \"#utility.yul\":5195:5202   */\n      dup10\n        /* \"#utility.yul\":5186:5192   */\n      dup3\n        /* \"#utility.yul\":5175:5184   */\n      dup11\n        /* \"#utility.yul\":5171:5193   */\n      add\n        /* \"#utility.yul\":5150:5203   */\n      tag_58\n      jump\t// in\n    tag_141:\n        /* \"#utility.yul\":5140:5203   */\n      swap6\n      pop\n        /* \"#utility.yul\":5095:5213   */\n      pop\n        /* \"#utility.yul\":5252:5254   */\n      0x40\n        /* \"#utility.yul\":5278:5331   */\n      tag_142\n        /* \"#utility.yul\":5323:5330   */\n      dup10\n        /* \"#utility.yul\":5314:5320   */\n      dup3\n        /* \"#utility.yul\":5303:5312   */\n      dup11\n        /* \"#utility.yul\":5299:5321   */\n      add\n        /* \"#utility.yul\":5278:5331   */\n      tag_62\n      jump\t// in\n    tag_142:\n        /* \"#utility.yul\":5268:5331   */\n      swap5\n      pop\n        /* \"#utility.yul\":5223:5341   */\n      pop\n        /* \"#utility.yul\":5380:5382   */\n      0x60\n        /* \"#utility.yul\":5406:5459   */\n      tag_143\n        /* \"#utility.yul\":5451:5458   */\n      dup10\n        /* \"#utility.yul\":5442:5448   */\n      dup3\n        /* \"#utility.yul\":5431:5440   */\n      dup11\n        /* \"#utility.yul\":5427:5449   */\n      add\n        /* \"#utility.yul\":5406:5459   */\n      tag_62\n      jump\t// in\n    tag_143:\n        /* \"#utility.yul\":5396:5459   */\n      swap4\n      pop\n        /* \"#utility.yul\":5351:5469   */\n      pop\n        /* \"#utility.yul\":5536:5539   */\n      0x80\n        /* \"#utility.yul\":5525:5534   */\n      dup8\n        /* \"#utility.yul\":5521:5540   */\n      add\n        /* \"#utility.yul\":5508:5541   */\n      calldataload\n        /* \"#utility.yul\":5568:5586   */\n      0xffffffffffffffff\n        /* \"#utility.yul\":5560:5566   */\n      dup2\n        /* \"#utility.yul\":5557:5587   */\n      gt\n        /* \"#utility.yul\":5554:5671   */\n      iszero\n      tag_144\n      jumpi\n        /* \"#utility.yul\":5590:5669   */\n      tag_145\n      tag_54\n      jump\t// in\n    tag_145:\n        /* \"#utility.yul\":5554:5671   */\n    tag_144:\n        /* \"#utility.yul\":5703:5767   */\n      tag_146\n        /* \"#utility.yul\":5759:5766   */\n      dup10\n        /* \"#utility.yul\":5750:5756   */\n      dup3\n        /* \"#utility.yul\":5739:5748   */\n      dup11\n        /* \"#utility.yul\":5735:5757   */\n      add\n        /* \"#utility.yul\":5703:5767   */\n      tag_71\n      jump\t// in\n    tag_146:\n        /* \"#utility.yul\":5685:5767   */\n      swap3\n      pop\n      swap3\n      pop\n        /* \"#utility.yul\":5479:5777   */\n      pop\n        /* \"#utility.yul\":4675:5784   */\n      swap3\n      swap6\n      pop\n      swap3\n      swap6\n      pop\n      swap3\n      swap6\n      jump\t// out\n        /* \"#utility.yul\":5790:5939   */\n    tag_72:\n        /* \"#utility.yul\":5826:5833   */\n      0x00\n        /* \"#utility.yul\":5866:5932   */\n      0xffffffff00000000000000000000000000000000000000000000000000000000\n        /* \"#utility.yul\":5859:5864   */\n      dup3\n        /* \"#utility.yul\":5855:5933   */\n      and\n        /* \"#utility.yul\":5844:5933   */\n      swap1\n      pop\n        /* \"#utility.yul\":5790:5939   */\n      swap2\n      swap1\n      pop\n      jump\t// out\n        /* \"#utility.yul\":5945:6060   */\n    tag_73:\n        /* \"#utility.yul\":6030:6053   */\n      tag_149\n        /* \"#utility.yul\":6047:6052   */\n      dup2\n        /* \"#utility.yul\":6030:6053   */\n      tag_72\n      jump\t// in\n    tag_149:\n        /* \"#utility.yul\":6025:6028   */\n      dup3\n        /* \"#utility.yul\":6018:6054   */\n      mstore\n        /* \"#utility.yul\":5945:6060   */\n      pop\n      pop\n      jump\t// out\n        /* \"#utility.yul\":6066:6284   */\n    tag_35:\n        /* \"#utility.yul\":6157:6161   */\n      0x00\n        /* \"#utility.yul\":6195:6197   */\n      0x20\n        /* \"#utility.yul\":6184:6193   */\n      dup3\n        /* \"#utility.yul\":6180:6198   */\n      add\n        /* \"#utility.yul\":6172:6198   */\n      swap1\n      pop\n        /* \"#utility.yul\":6208:6277   */\n      tag_151\n        /* \"#utility.yul\":6274:6275   */\n      0x00\n        /* \"#utility.yul\":6263:6272   */\n      dup4\n        /* \"#utility.yul\":6259:6276   */\n      add\n        /* \"#utility.yul\":6250:6256   */\n      dup5\n        /* \"#utility.yul\":6208:6277   */\n      tag_73\n      jump\t// in\n    tag_151:\n        /* \"#utility.yul\":6066:6284   */\n      swap3\n      swap2\n      pop\n      pop\n      jump\t// out\n        /* \"#utility.yul\":6290:6408   */\n    tag_74:\n        /* \"#utility.yul\":6377:6401   */\n      tag_153\n        /* \"#utility.yul\":6395:6400   */\n      dup2\n        /* \"#utility.yul\":6377:6401   */\n      tag_56\n      jump\t// in\n    tag_153:\n        /* \"#utility.yul\":6372:6375   */\n      dup3\n        /* \"#utility.yul\":6365:6402   */\n      mstore\n        /* \"#utility.yul\":6290:6408   */\n      pop\n      pop\n      jump\t// out\n        /* \"#utility.yul\":6414:6582   */\n    tag_75:\n        /* \"#utility.yul\":6497:6508   */\n      0x00\n        /* \"#utility.yul\":6531:6537   */\n      dup3\n        /* \"#utility.yul\":6526:6529   */\n      dup3\n        /* \"#utility.yul\":6519:6538   */\n      mstore\n        /* \"#utility.yul\":6571:6575   */\n      0x20\n        /* \"#utility.yul\":6566:6569   */\n      dup3\n        /* \"#utility.yul\":6562:6576   */\n      add\n        /* \"#utility.yul\":6547:6576   */\n      swap1\n      pop\n        /* \"#utility.yul\":6414:6582   */\n      swap3\n      swap2\n      pop\n      pop\n      jump\t// out\n        /* \"#utility.yul\":6588:6742   */\n    tag_76:\n        /* \"#utility.yul\":6728:6734   */\n      0x3078303000000000000000000000000000000000000000000000000000000000\n        /* \"#utility.yul\":6724:6725   */\n      0x00\n        /* \"#utility.yul\":6716:6722   */\n      dup3\n        /* \"#utility.yul\":6712:6726   */\n      add\n        /* \"#utility.yul\":6705:6735   */\n      mstore\n        /* \"#utility.yul\":6588:6742   */\n      pop\n      jump\t// out\n        /* \"#utility.yul\":6748:7111   */\n    tag_77:\n        /* \"#utility.yul\":6889:6892   */\n      0x00\n        /* \"#utility.yul\":6910:6975   */\n      tag_157\n        /* \"#utility.yul\":6973:6974   */\n      0x04\n        /* \"#utility.yul\":6968:6971   */\n      dup4\n        /* \"#utility.yul\":6910:6975   */\n      tag_75\n      jump\t// in\n    tag_157:\n        /* \"#utility.yul\":6903:6975   */\n      swap2\n      pop\n        /* \"#utility.yul\":6984:7077   */\n      tag_158\n        /* \"#utility.yul\":7073:7076   */\n      dup3\n        /* \"#utility.yul\":6984:7077   */\n      tag_76\n      jump\t// in\n    tag_158:\n        /* \"#utility.yul\":7102:7104   */\n      0x20\n        /* \"#utility.yul\":7097:7100   */\n      dup3\n        /* \"#utility.yul\":7093:7105   */\n      add\n        /* \"#utility.yul\":7086:7105   */\n      swap1\n      pop\n        /* \"#utility.yul\":6748:7111   */\n      swap2\n      swap1\n      pop\n      jump\t// out\n        /* \"#utility.yul\":7117:7976   */\n    tag_38:\n        /* \"#utility.yul\":7394:7398   */\n      0x00\n        /* \"#utility.yul\":7432:7435   */\n      0xa0\n        /* \"#utility.yul\":7421:7430   */\n      dup3\n        /* \"#utility.yul\":7417:7436   */\n      add\n        /* \"#utility.yul\":7409:7436   */\n      swap1\n      pop\n        /* \"#utility.yul\":7446:7517   */\n      tag_160\n        /* \"#utility.yul\":7514:7515   */\n      0x00\n        /* \"#utility.yul\":7503:7512   */\n      dup4\n        /* \"#utility.yul\":7499:7516   */\n      add\n        /* \"#utility.yul\":7490:7496   */\n      dup8\n        /* \"#utility.yul\":7446:7517   */\n      tag_74\n      jump\t// in\n    tag_160:\n        /* \"#utility.yul\":7527:7599   */\n      tag_161\n        /* \"#utility.yul\":7595:7597   */\n      0x20\n        /* \"#utility.yul\":7584:7593   */\n      dup4\n        /* \"#utility.yul\":7580:7598   */\n      add\n        /* \"#utility.yul\":7571:7577   */\n      dup7\n        /* \"#utility.yul\":7527:7599   */\n      tag_74\n      jump\t// in\n    tag_161:\n        /* \"#utility.yul\":7609:7681   */\n      tag_162\n        /* \"#utility.yul\":7677:7679   */\n      0x40\n        /* \"#utility.yul\":7666:7675   */\n      dup4\n        /* \"#utility.yul\":7662:7680   */\n      add\n        /* \"#utility.yul\":7653:7659   */\n      dup6\n        /* \"#utility.yul\":7609:7681   */\n      tag_60\n      jump\t// in\n    tag_162:\n        /* \"#utility.yul\":7691:7763   */\n      tag_163\n        /* \"#utility.yul\":7759:7761   */\n      0x60\n        /* \"#utility.yul\":7748:7757   */\n      dup4\n        /* \"#utility.yul\":7744:7762   */\n      add\n        /* \"#utility.yul\":7735:7741   */\n      dup5\n        /* \"#utility.yul\":7691:7763   */\n      tag_60\n      jump\t// in\n    tag_163:\n        /* \"#utility.yul\":7811:7820   */\n      dup2\n        /* \"#utility.yul\":7805:7809   */\n      dup2\n        /* \"#utility.yul\":7801:7821   */\n      sub\n        /* \"#utility.yul\":7795:7798   */\n      0x80\n        /* \"#utility.yul\":7784:7793   */\n      dup4\n        /* \"#utility.yul\":7780:7799   */\n      add\n        /* \"#utility.yul\":7773:7822   */\n      mstore\n        /* \"#utility.yul\":7839:7969   */\n      tag_164\n        /* \"#utility.yul\":7964:7968   */\n      dup2\n        /* \"#utility.yul\":7839:7969   */\n      tag_77\n      jump\t// in\n    tag_164:\n        /* \"#utility.yul\":7831:7969   */\n      swap1\n      pop\n        /* \"#utility.yul\":7117:7976   */\n      swap6\n      swap5\n      pop\n      pop\n      pop\n      pop\n      pop\n      jump\t// out\n        /* \"#utility.yul\":7982:8162   */\n    tag_78:\n        /* \"#utility.yul\":8030:8107   */\n      0x4e487b7100000000000000000000000000000000000000000000000000000000\n        /* \"#utility.yul\":8027:8028   */\n      0x00\n        /* \"#utility.yul\":8020:8108   */\n      mstore\n        /* \"#utility.yul\":8127:8131   */\n      0x11\n        /* \"#utility.yul\":8124:8125   */\n      0x04\n        /* \"#utility.yul\":8117:8132   */\n      mstore\n        /* \"#utility.yul\":8151:8155   */\n      0x24\n        /* \"#utility.yul\":8148:8149   */\n      0x00\n        /* \"#utility.yul\":8141:8156   */\n      revert\n        /* \"#utility.yul\":8168:8359   */\n    tag_43:\n        /* \"#utility.yul\":8208:8212   */\n      0x00\n        /* \"#utility.yul\":8228:8248   */\n      tag_167\n        /* \"#utility.yul\":8246:8247   */\n      dup3\n        /* \"#utility.yul\":8228:8248   */\n      tag_59\n      jump\t// in\n    tag_167:\n        /* \"#utility.yul\":8223:8248   */\n      swap2\n      pop\n        /* \"#utility.yul\":8262:8282   */\n      tag_168\n        /* \"#utility.yul\":8280:8281   */\n      dup4\n        /* \"#utility.yul\":8262:8282   */\n      tag_59\n      jump\t// in\n    tag_168:\n        /* \"#utility.yul\":8257:8282   */\n      swap3\n      pop\n        /* \"#utility.yul\":8301:8302   */\n      dup3\n        /* \"#utility.yul\":8298:8299   */\n      dup3\n        /* \"#utility.yul\":8295:8303   */\n      lt\n        /* \"#utility.yul\":8292:8326   */\n      iszero\n      tag_169\n      jumpi\n        /* \"#utility.yul\":8306:8324   */\n      tag_170\n      tag_78\n      jump\t// in\n    tag_170:\n        /* \"#utility.yul\":8292:8326   */\n    tag_169:\n        /* \"#utility.yul\":8351:8352   */\n      dup3\n        /* \"#utility.yul\":8348:8349   */\n      dup3\n        /* \"#utility.yul\":8344:8353   */\n      sub\n        /* \"#utility.yul\":8336:8353   */\n      swap1\n      pop\n        /* \"#utility.yul\":8168:8359   */\n      swap3\n      swap2\n      pop\n      pop\n      jump\t// out\n        /* \"#utility.yul\":8365:8670   */\n    tag_45:\n        /* \"#utility.yul\":8405:8408   */\n      0x00\n        /* \"#utility.yul\":8424:8444   */\n      tag_172\n        /* \"#utility.yul\":8442:8443   */\n      dup3\n        /* \"#utility.yul\":8424:8444   */\n      tag_59\n      jump\t// in\n    tag_172:\n        /* \"#utility.yul\":8419:8444   */\n      swap2\n      pop\n        /* \"#utility.yul\":8458:8478   */\n      tag_173\n        /* \"#utility.yul\":8476:8477   */\n      dup4\n        /* \"#utility.yul\":8458:8478   */\n      tag_59\n      jump\t// in\n    tag_173:\n        /* \"#utility.yul\":8453:8478   */\n      swap3\n      pop\n        /* \"#utility.yul\":8612:8613   */\n      dup3\n        /* \"#utility.yul\":8544:8610   */\n      0xffffffffffffffffffffffffffffffffffffffffffffffffffffffffffffffff\n        /* \"#utility.yul\":8540:8614   */\n      sub\n        /* \"#utility.yul\":8537:8538   */\n      dup3\n        /* \"#utility.yul\":8534:8615   */\n      gt\n        /* \"#utility.yul\":8531:8638   */\n      iszero\n      tag_174\n      jumpi\n        /* \"#utility.yul\":8618:8636   */\n      tag_175\n      tag_78\n      jump\t// in\n    tag_175:\n        /* \"#utility.yul\":8531:8638   */\n    tag_174:\n        /* \"#utility.yul\":8662:8663   */\n      dup3\n        /* \"#utility.yul\":8659:8660   */\n      dup3\n        /* \"#utility.yul\":8655:8664   */\n      add\n        /* \"#utility.yul\":8648:8664   */\n      swap1\n      pop\n        /* \"#utility.yul\":8365:8670   */\n      swap3\n      swap2\n      pop\n      pop\n      jump\t// out\n\n    auxdata: 0xa2646970667358221220e76ef1d2d322b03ff03a2e4d638d551f0038009d5ef7c4d4eed95ada809e88f464736f6c634300080e0033\n}\n",
				"bytecode": {
					"linkReferences": {},
					"object": "608060405234801561001057600080fd5b50737dd42e364a7bc874b629047a493fd758a578c1ad6000806101000a81548173ffffffffffffffffffffffffffffffffffffffff021916908373ffffffffffffffffffffffffffffffffffffffff1602179055506109e4806100746000396000f3fe608060405234801561001057600080fd5b50600436106100625760003560e01c806316934fc4146100675780632def662014610099578063583d42fd146100a35780637b0472f0146100d3578063b8e33fb2146100ef578063f23a6e611461010d575b600080fd5b610081600480360381019061007c919061055e565b61013d565b604051610090939291906105a4565b60405180910390f35b6100a1610167565b005b6100bd60048036038101906100b8919061055e565b61037b565b6040516100ca91906105db565b60405180910390f35b6100ed60048036038101906100e89190610622565b610393565b005b6100f76104a3565b60405161010491906106c1565b60405180910390f35b61012760048036038101906101229190610741565b6104c7565b6040516101349190610816565b60405180910390f35b60016020528060005260406000206000915090508060000154908060010154908060020154905083565b60008054906101000a900473ffffffffffffffffffffffffffffffffffffffff1673ffffffffffffffffffffffffffffffffffffffff1663f242432a3033600160003373ffffffffffffffffffffffffffffffffffffffff1673ffffffffffffffffffffffffffffffffffffffff16815260200190815260200160002060000154600160003373ffffffffffffffffffffffffffffffffffffffff1673ffffffffffffffffffffffffffffffffffffffff168152602001908152602001600020600101546040518563ffffffff1660e01b815260040161024a949392919061089d565b600060405180830381600087803b15801561026457600080fd5b505af1158015610278573d6000803e3d6000fd5b50505050600160003373ffffffffffffffffffffffffffffffffffffffff1673ffffffffffffffffffffffffffffffffffffffff16815260200190815260200160002060020154426102ca9190610924565b600260003373ffffffffffffffffffffffffffffffffffffffff1673ffffffffffffffffffffffffffffffffffffffff16815260200190815260200160002060008282546103189190610958565b92505081905550600160003373ffffffffffffffffffffffffffffffffffffffff1673ffffffffffffffffffffffffffffffffffffffff168152602001908152602001600020600080820160009055600182016000905560028201600090555050565b60026020528060005260406000206000915090505481565b604051806060016040528083815260200182815260200142815250600160003373ffffffffffffffffffffffffffffffffffffffff1673ffffffffffffffffffffffffffffffffffffffff16815260200190815260200160002060008201518160000155602082015181600101556040820151816002015590505060008054906101000a900473ffffffffffffffffffffffffffffffffffffffff1673ffffffffffffffffffffffffffffffffffffffff1663f242432a333085856040518563ffffffff1660e01b815260040161046d949392919061089d565b600060405180830381600087803b15801561048757600080fd5b505af115801561049b573d6000803e3d6000fd5b505050505050565b60008054906101000a900473ffffffffffffffffffffffffffffffffffffffff1681565b60007ff23a6e612e1ff4830e658fe43f4e3cb4a5f8170bd5d9e69fb5d7a7fa9e4fdf9790509695505050505050565b600080fd5b600080fd5b600073ffffffffffffffffffffffffffffffffffffffff82169050919050565b600061052b82610500565b9050919050565b61053b81610520565b811461054657600080fd5b50565b60008135905061055881610532565b92915050565b600060208284031215610574576105736104f6565b5b600061058284828501610549565b91505092915050565b6000819050919050565b61059e8161058b565b82525050565b60006060820190506105b96000830186610595565b6105c66020830185610595565b6105d36040830184610595565b949350505050565b60006020820190506105f06000830184610595565b92915050565b6105ff8161058b565b811461060a57600080fd5b50565b60008135905061061c816105f6565b92915050565b60008060408385031215610639576106386104f6565b5b60006106478582860161060d565b92505060206106588582860161060d565b9150509250929050565b6000819050919050565b600061068761068261067d84610500565b610662565b610500565b9050919050565b60006106998261066c565b9050919050565b60006106ab8261068e565b9050919050565b6106bb816106a0565b82525050565b60006020820190506106d660008301846106b2565b92915050565b600080fd5b600080fd5b600080fd5b60008083601f840112610701576107006106dc565b5b8235905067ffffffffffffffff81111561071e5761071d6106e1565b5b60208301915083600182028301111561073a576107396106e6565b5b9250929050565b60008060008060008060a0878903121561075e5761075d6104f6565b5b600061076c89828a01610549565b965050602061077d89828a01610549565b955050604061078e89828a0161060d565b945050606061079f89828a0161060d565b935050608087013567ffffffffffffffff8111156107c0576107bf6104fb565b5b6107cc89828a016106eb565b92509250509295509295509295565b60007fffffffff0000000000000000000000000000000000000000000000000000000082169050919050565b610810816107db565b82525050565b600060208201905061082b6000830184610807565b92915050565b61083a81610520565b82525050565b600082825260208201905092915050565b7f3078303000000000000000000000000000000000000000000000000000000000600082015250565b6000610887600483610840565b915061089282610851565b602082019050919050565b600060a0820190506108b26000830187610831565b6108bf6020830186610831565b6108cc6040830185610595565b6108d96060830184610595565b81810360808301526108ea8161087a565b905095945050505050565b7f4e487b7100000000000000000000000000000000000000000000000000000000600052601160045260246000fd5b600061092f8261058b565b915061093a8361058b565b92508282101561094d5761094c6108f5565b5b828203905092915050565b60006109638261058b565b915061096e8361058b565b9250827fffffffffffffffffffffffffffffffffffffffffffffffffffffffffffffffff038211156109a3576109a26108f5565b5b82820190509291505056fea2646970667358221220e76ef1d2d322b03ff03a2e4d638d551f0038009d5ef7c4d4eed95ada809e88f464736f6c634300080e0033",
					"opcodes": "PUSH1 0x80 PUSH1 0x40 MSTORE CALLVALUE DUP1 ISZERO PUSH2 0x10 JUMPI PUSH1 0x0 DUP1 REVERT JUMPDEST POP PUSH20 0x7DD42E364A7BC874B629047A493FD758A578C1AD PUSH1 0x0 DUP1 PUSH2 0x100 EXP DUP2 SLOAD DUP2 PUSH20 0xFFFFFFFFFFFFFFFFFFFFFFFFFFFFFFFFFFFFFFFF MUL NOT AND SWAP1 DUP4 PUSH20 0xFFFFFFFFFFFFFFFFFFFFFFFFFFFFFFFFFFFFFFFF AND MUL OR SWAP1 SSTORE POP PUSH2 0x9E4 DUP1 PUSH2 0x74 PUSH1 0x0 CODECOPY PUSH1 0x0 RETURN INVALID PUSH1 0x80 PUSH1 0x40 MSTORE CALLVALUE DUP1 ISZERO PUSH2 0x10 JUMPI PUSH1 0x0 DUP1 REVERT JUMPDEST POP PUSH1 0x4 CALLDATASIZE LT PUSH2 0x62 JUMPI PUSH1 0x0 CALLDATALOAD PUSH1 0xE0 SHR DUP1 PUSH4 0x16934FC4 EQ PUSH2 0x67 JUMPI DUP1 PUSH4 0x2DEF6620 EQ PUSH2 0x99 JUMPI DUP1 PUSH4 0x583D42FD EQ PUSH2 0xA3 JUMPI DUP1 PUSH4 0x7B0472F0 EQ PUSH2 0xD3 JUMPI DUP1 PUSH4 0xB8E33FB2 EQ PUSH2 0xEF JUMPI DUP1 PUSH4 0xF23A6E61 EQ PUSH2 0x10D JUMPI JUMPDEST PUSH1 0x0 DUP1 REVERT JUMPDEST PUSH2 0x81 PUSH1 0x4 DUP1 CALLDATASIZE SUB DUP2 ADD SWAP1 PUSH2 0x7C SWAP2 SWAP1 PUSH2 0x55E JUMP JUMPDEST PUSH2 0x13D JUMP JUMPDEST PUSH1 0x40 MLOAD PUSH2 0x90 SWAP4 SWAP3 SWAP2 SWAP1 PUSH2 0x5A4 JUMP JUMPDEST PUSH1 0x40 MLOAD DUP1 SWAP2 SUB SWAP1 RETURN JUMPDEST PUSH2 0xA1 PUSH2 0x167 JUMP JUMPDEST STOP JUMPDEST PUSH2 0xBD PUSH1 0x4 DUP1 CALLDATASIZE SUB DUP2 ADD SWAP1 PUSH2 0xB8 SWAP2 SWAP1 PUSH2 0x55E JUMP JUMPDEST PUSH2 0x37B JUMP JUMPDEST PUSH1 0x40 MLOAD PUSH2 0xCA SWAP2 SWAP1 PUSH2 0x5DB JUMP JUMPDEST PUSH1 0x40 MLOAD DUP1 SWAP2 SUB SWAP1 RETURN JUMPDEST PUSH2 0xED PUSH1 0x4 DUP1 CALLDATASIZE SUB DUP2 ADD SWAP1 PUSH2 0xE8 SWAP2 SWAP1 PUSH2 0x622 JUMP JUMPDEST PUSH2 0x393 JUMP JUMPDEST STOP JUMPDEST PUSH2 0xF7 PUSH2 0x4A3 JUMP JUMPDEST PUSH1 0x40 MLOAD PUSH2 0x104 SWAP2 SWAP1 PUSH2 0x6C1 JUMP JUMPDEST PUSH1 0x40 MLOAD DUP1 SWAP2 SUB SWAP1 RETURN JUMPDEST PUSH2 0x127 PUSH1 0x4 DUP1 CALLDATASIZE SUB DUP2 ADD SWAP1 PUSH2 0x122 SWAP2 SWAP1 PUSH2 0x741 JUMP JUMPDEST PUSH2 0x4C7 JUMP JUMPDEST PUSH1 0x40 MLOAD PUSH2 0x134 SWAP2 SWAP1 PUSH2 0x816 JUMP JUMPDEST PUSH1 0x40 MLOAD DUP1 SWAP2 SUB SWAP1 RETURN JUMPDEST PUSH1 0x1 PUSH1 0x20 MSTORE DUP1 PUSH1 0x0 MSTORE PUSH1 0x40 PUSH1 0x0 KECCAK256 PUSH1 0x0 SWAP2 POP SWAP1 POP DUP1 PUSH1 0x0 ADD SLOAD SWAP1 DUP1 PUSH1 0x1 ADD SLOAD SWAP1 DUP1 PUSH1 0x2 ADD SLOAD SWAP1 POP DUP4 JUMP JUMPDEST PUSH1 0x0 DUP1 SLOAD SWAP1 PUSH2 0x100 EXP SWAP1 DIV PUSH20 0xFFFFFFFFFFFFFFFFFFFFFFFFFFFFFFFFFFFFFFFF AND PUSH20 0xFFFFFFFFFFFFFFFFFFFFFFFFFFFFFFFFFFFFFFFF AND PUSH4 0xF242432A ADDRESS CALLER PUSH1 0x1 PUSH1 0x0 CALLER PUSH20 0xFFFFFFFFFFFFFFFFFFFFFFFFFFFFFFFFFFFFFFFF AND PUSH20 0xFFFFFFFFFFFFFFFFFFFFFFFFFFFFFFFFFFFFFFFF AND DUP2 MSTORE PUSH1 0x20 ADD SWAP1 DUP2 MSTORE PUSH1 0x20 ADD PUSH1 0x0 KECCAK256 PUSH1 0x0 ADD SLOAD PUSH1 0x1 PUSH1 0x0 CALLER PUSH20 0xFFFFFFFFFFFFFFFFFFFFFFFFFFFFFFFFFFFFFFFF AND PUSH20 0xFFFFFFFFFFFFFFFFFFFFFFFFFFFFFFFFFFFFFFFF AND DUP2 MSTORE PUSH1 0x20 ADD SWAP1 DUP2 MSTORE PUSH1 0x20 ADD PUSH1 0x0 KECCAK256 PUSH1 0x1 ADD SLOAD PUSH1 0x40 MLOAD DUP6 PUSH4 0xFFFFFFFF AND PUSH1 0xE0 SHL DUP2 MSTORE PUSH1 0x4 ADD PUSH2 0x24A SWAP5 SWAP4 SWAP3 SWAP2 SWAP1 PUSH2 0x89D JUMP JUMPDEST PUSH1 0x0 PUSH1 0x40 MLOAD DUP1 DUP4 SUB DUP2 PUSH1 0x0 DUP8 DUP1 EXTCODESIZE ISZERO DUP1 ISZERO PUSH2 0x264 JUMPI PUSH1 0x0 DUP1 REVERT JUMPDEST POP GAS CALL ISZERO DUP1 ISZERO PUSH2 0x278 JUMPI RETURNDATASIZE PUSH1 0x0 DUP1 RETURNDATACOPY RETURNDATASIZE PUSH1 0x0 REVERT JUMPDEST POP POP POP POP PUSH1 0x1 PUSH1 0x0 CALLER PUSH20 0xFFFFFFFFFFFFFFFFFFFFFFFFFFFFFFFFFFFFFFFF AND PUSH20 0xFFFFFFFFFFFFFFFFFFFFFFFFFFFFFFFFFFFFFFFF AND DUP2 MSTORE PUSH1 0x20 ADD SWAP1 DUP2 MSTORE PUSH1 0x20 ADD PUSH1 0x0 KECCAK256 PUSH1 0x2 ADD SLOAD TIMESTAMP PUSH2 0x2CA SWAP2 SWAP1 PUSH2 0x924 JUMP JUMPDEST PUSH1 0x2 PUSH1 0x0 CALLER PUSH20 0xFFFFFFFFFFFFFFFFFFFFFFFFFFFFFFFFFFFFFFFF AND PUSH20 0xFFFFFFFFFFFFFFFFFFFFFFFFFFFFFFFFFFFFFFFF AND DUP2 MSTORE PUSH1 0x20 ADD SWAP1 DUP2 MSTORE PUSH1 0x20 ADD PUSH1 0x0 KECCAK256 PUSH1 0x0 DUP3 DUP3 SLOAD PUSH2 0x318 SWAP2 SWAP1 PUSH2 0x958 JUMP JUMPDEST SWAP3 POP POP DUP2 SWAP1 SSTORE POP PUSH1 0x1 PUSH1 0x0 CALLER PUSH20 0xFFFFFFFFFFFFFFFFFFFFFFFFFFFFFFFFFFFFFFFF AND PUSH20 0xFFFFFFFFFFFFFFFFFFFFFFFFFFFFFFFFFFFFFFFF AND DUP2 MSTORE PUSH1 0x20 ADD SWAP1 DUP2 MSTORE PUSH1 0x20 ADD PUSH1 0x0 KECCAK256 PUSH1 0x0 DUP1 DUP3 ADD PUSH1 0x0 SWAP1 SSTORE PUSH1 0x1 DUP3 ADD PUSH1 0x0 SWAP1 SSTORE PUSH1 0x2 DUP3 ADD PUSH1 0x0 SWAP1 SSTORE POP POP JUMP JUMPDEST PUSH1 0x2 PUSH1 0x20 MSTORE DUP1 PUSH1 0x0 MSTORE PUSH1 0x40 PUSH1 0x0 KECCAK256 PUSH1 0x0 SWAP2 POP SWAP1 POP SLOAD DUP2 JUMP JUMPDEST PUSH1 0x40 MLOAD DUP1 PUSH1 0x60 ADD PUSH1 0x40 MSTORE DUP1 DUP4 DUP2 MSTORE PUSH1 0x20 ADD DUP3 DUP2 MSTORE PUSH1 0x20 ADD TIMESTAMP DUP2 MSTORE POP PUSH1 0x1 PUSH1 0x0 CALLER PUSH20 0xFFFFFFFFFFFFFFFFFFFFFFFFFFFFFFFFFFFFFFFF AND PUSH20 0xFFFFFFFFFFFFFFFFFFFFFFFFFFFFFFFFFFFFFFFF AND DUP2 MSTORE PUSH1 0x20 ADD SWAP1 DUP2 MSTORE PUSH1 0x20 ADD PUSH1 0x0 KECCAK256 PUSH1 0x0 DUP3 ADD MLOAD DUP2 PUSH1 0x0 ADD SSTORE PUSH1 0x20 DUP3 ADD MLOAD DUP2 PUSH1 0x1 ADD SSTORE PUSH1 0x40 DUP3 ADD MLOAD DUP2 PUSH1 0x2 ADD SSTORE SWAP1 POP POP PUSH1 0x0 DUP1 SLOAD SWAP1 PUSH2 0x100 EXP SWAP1 DIV PUSH20 0xFFFFFFFFFFFFFFFFFFFFFFFFFFFFFFFFFFFFFFFF AND PUSH20 0xFFFFFFFFFFFFFFFFFFFFFFFFFFFFFFFFFFFFFFFF AND PUSH4 0xF242432A CALLER ADDRESS DUP6 DUP6 PUSH1 0x40 MLOAD DUP6 PUSH4 0xFFFFFFFF AND PUSH1 0xE0 SHL DUP2 MSTORE PUSH1 0x4 ADD PUSH2 0x46D SWAP5 SWAP4 SWAP3 SWAP2 SWAP1 PUSH2 0x89D JUMP JUMPDEST PUSH1 0x0 PUSH1 0x40 MLOAD DUP1 DUP4 SUB DUP2 PUSH1 0x0 DUP8 DUP1 EXTCODESIZE ISZERO DUP1 ISZERO PUSH2 0x487 JUMPI PUSH1 0x0 DUP1 REVERT JUMPDEST POP GAS CALL ISZERO DUP1 ISZERO PUSH2 0x49B JUMPI RETURNDATASIZE PUSH1 0x0 DUP1 RETURNDATACOPY RETURNDATASIZE PUSH1 0x0 REVERT JUMPDEST POP POP POP POP POP POP JUMP JUMPDEST PUSH1 0x0 DUP1 SLOAD SWAP1 PUSH2 0x100 EXP SWAP1 DIV PUSH20 0xFFFFFFFFFFFFFFFFFFFFFFFFFFFFFFFFFFFFFFFF AND DUP2 JUMP JUMPDEST PUSH1 0x0 PUSH32 0xF23A6E612E1FF4830E658FE43F4E3CB4A5F8170BD5D9E69FB5D7A7FA9E4FDF97 SWAP1 POP SWAP7 SWAP6 POP POP POP POP POP POP JUMP JUMPDEST PUSH1 0x0 DUP1 REVERT JUMPDEST PUSH1 0x0 DUP1 REVERT JUMPDEST PUSH1 0x0 PUSH20 0xFFFFFFFFFFFFFFFFFFFFFFFFFFFFFFFFFFFFFFFF DUP3 AND SWAP1 POP SWAP2 SWAP1 POP JUMP JUMPDEST PUSH1 0x0 PUSH2 0x52B DUP3 PUSH2 0x500 JUMP JUMPDEST SWAP1 POP SWAP2 SWAP1 POP JUMP JUMPDEST PUSH2 0x53B DUP2 PUSH2 0x520 JUMP JUMPDEST DUP2 EQ PUSH2 0x546 JUMPI PUSH1 0x0 DUP1 REVERT JUMPDEST POP JUMP JUMPDEST PUSH1 0x0 DUP2 CALLDATALOAD SWAP1 POP PUSH2 0x558 DUP2 PUSH2 0x532 JUMP JUMPDEST SWAP3 SWAP2 POP POP JUMP JUMPDEST PUSH1 0x0 PUSH1 0x20 DUP3 DUP5 SUB SLT ISZERO PUSH2 0x574 JUMPI PUSH2 0x573 PUSH2 0x4F6 JUMP JUMPDEST JUMPDEST PUSH1 0x0 PUSH2 0x582 DUP5 DUP3 DUP6 ADD PUSH2 0x549 JUMP JUMPDEST SWAP2 POP POP SWAP3 SWAP2 POP POP JUMP JUMPDEST PUSH1 0x0 DUP2 SWAP1 POP SWAP2 SWAP1 POP JUMP JUMPDEST PUSH2 0x59E DUP2 PUSH2 0x58B JUMP JUMPDEST DUP3 MSTORE POP POP JUMP JUMPDEST PUSH1 0x0 PUSH1 0x60 DUP3 ADD SWAP1 POP PUSH2 0x5B9 PUSH1 0x0 DUP4 ADD DUP7 PUSH2 0x595 JUMP JUMPDEST PUSH2 0x5C6 PUSH1 0x20 DUP4 ADD DUP6 PUSH2 0x595 JUMP JUMPDEST PUSH2 0x5D3 PUSH1 0x40 DUP4 ADD DUP5 PUSH2 0x595 JUMP JUMPDEST SWAP5 SWAP4 POP POP POP POP JUMP JUMPDEST PUSH1 0x0 PUSH1 0x20 DUP3 ADD SWAP1 POP PUSH2 0x5F0 PUSH1 0x0 DUP4 ADD DUP5 PUSH2 0x595 JUMP JUMPDEST SWAP3 SWAP2 POP POP JUMP JUMPDEST PUSH2 0x5FF DUP2 PUSH2 0x58B JUMP JUMPDEST DUP2 EQ PUSH2 0x60A JUMPI PUSH1 0x0 DUP1 REVERT JUMPDEST POP JUMP JUMPDEST PUSH1 0x0 DUP2 CALLDATALOAD SWAP1 POP PUSH2 0x61C DUP2 PUSH2 0x5F6 JUMP JUMPDEST SWAP3 SWAP2 POP POP JUMP JUMPDEST PUSH1 0x0 DUP1 PUSH1 0x40 DUP4 DUP6 SUB SLT ISZERO PUSH2 0x639 JUMPI PUSH2 0x638 PUSH2 0x4F6 JUMP JUMPDEST JUMPDEST PUSH1 0x0 PUSH2 0x647 DUP6 DUP3 DUP7 ADD PUSH2 0x60D JUMP JUMPDEST SWAP3 POP POP PUSH1 0x20 PUSH2 0x658 DUP6 DUP3 DUP7 ADD PUSH2 0x60D JUMP JUMPDEST SWAP2 POP POP SWAP3 POP SWAP3 SWAP1 POP JUMP JUMPDEST PUSH1 0x0 DUP2 SWAP1 POP SWAP2 SWAP1 POP JUMP JUMPDEST PUSH1 0x0 PUSH2 0x687 PUSH2 0x682 PUSH2 0x67D DUP5 PUSH2 0x500 JUMP JUMPDEST PUSH2 0x662 JUMP JUMPDEST PUSH2 0x500 JUMP JUMPDEST SWAP1 POP SWAP2 SWAP1 POP JUMP JUMPDEST PUSH1 0x0 PUSH2 0x699 DUP3 PUSH2 0x66C JUMP JUMPDEST SWAP1 POP SWAP2 SWAP1 POP JUMP JUMPDEST PUSH1 0x0 PUSH2 0x6AB DUP3 PUSH2 0x68E JUMP JUMPDEST SWAP1 POP SWAP2 SWAP1 POP JUMP JUMPDEST PUSH2 0x6BB DUP2 PUSH2 0x6A0 JUMP JUMPDEST DUP3 MSTORE POP POP JUMP JUMPDEST PUSH1 0x0 PUSH1 0x20 DUP3 ADD SWAP1 POP PUSH2 0x6D6 PUSH1 0x0 DUP4 ADD DUP5 PUSH2 0x6B2 JUMP JUMPDEST SWAP3 SWAP2 POP POP JUMP JUMPDEST PUSH1 0x0 DUP1 REVERT JUMPDEST PUSH1 0x0 DUP1 REVERT JUMPDEST PUSH1 0x0 DUP1 REVERT JUMPDEST PUSH1 0x0 DUP1 DUP4 PUSH1 0x1F DUP5 ADD SLT PUSH2 0x701 JUMPI PUSH2 0x700 PUSH2 0x6DC JUMP JUMPDEST JUMPDEST DUP3 CALLDATALOAD SWAP1 POP PUSH8 0xFFFFFFFFFFFFFFFF DUP2 GT ISZERO PUSH2 0x71E JUMPI PUSH2 0x71D PUSH2 0x6E1 JUMP JUMPDEST JUMPDEST PUSH1 0x20 DUP4 ADD SWAP2 POP DUP4 PUSH1 0x1 DUP3 MUL DUP4 ADD GT ISZERO PUSH2 0x73A JUMPI PUSH2 0x739 PUSH2 0x6E6 JUMP JUMPDEST JUMPDEST SWAP3 POP SWAP3 SWAP1 POP JUMP JUMPDEST PUSH1 0x0 DUP1 PUSH1 0x0 DUP1 PUSH1 0x0 DUP1 PUSH1 0xA0 DUP8 DUP10 SUB SLT ISZERO PUSH2 0x75E JUMPI PUSH2 0x75D PUSH2 0x4F6 JUMP JUMPDEST JUMPDEST PUSH1 0x0 PUSH2 0x76C DUP10 DUP3 DUP11 ADD PUSH2 0x549 JUMP JUMPDEST SWAP7 POP POP PUSH1 0x20 PUSH2 0x77D DUP10 DUP3 DUP11 ADD PUSH2 0x549 JUMP JUMPDEST SWAP6 POP POP PUSH1 0x40 PUSH2 0x78E DUP10 DUP3 DUP11 ADD PUSH2 0x60D JUMP JUMPDEST SWAP5 POP POP PUSH1 0x60 PUSH2 0x79F DUP10 DUP3 DUP11 ADD PUSH2 0x60D JUMP JUMPDEST SWAP4 POP POP PUSH1 0x80 DUP8 ADD CALLDATALOAD PUSH8 0xFFFFFFFFFFFFFFFF DUP2 GT ISZERO PUSH2 0x7C0 JUMPI PUSH2 0x7BF PUSH2 0x4FB JUMP JUMPDEST JUMPDEST PUSH2 0x7CC DUP10 DUP3 DUP11 ADD PUSH2 0x6EB JUMP JUMPDEST SWAP3 POP SWAP3 POP POP SWAP3 SWAP6 POP SWAP3 SWAP6 POP SWAP3 SWAP6 JUMP JUMPDEST PUSH1 0x0 PUSH32 0xFFFFFFFF00000000000000000000000000000000000000000000000000000000 DUP3 AND SWAP1 POP SWAP2 SWAP1 POP JUMP JUMPDEST PUSH2 0x810 DUP2 PUSH2 0x7DB JUMP JUMPDEST DUP3 MSTORE POP POP JUMP JUMPDEST PUSH1 0x0 PUSH1 0x20 DUP3 ADD SWAP1 POP PUSH2 0x82B PUSH1 0x0 DUP4 ADD DUP5 PUSH2 0x807 JUMP JUMPDEST SWAP3 SWAP2 POP POP JUMP JUMPDEST PUSH2 0x83A DUP2 PUSH2 0x520 JUMP JUMPDEST DUP3 MSTORE POP POP JUMP JUMPDEST PUSH1 0x0 DUP3 DUP3 MSTORE PUSH1 0x20 DUP3 ADD SWAP1 POP SWAP3 SWAP2 POP POP JUMP JUMPDEST PUSH32 0x3078303000000000000000000000000000000000000000000000000000000000 PUSH1 0x0 DUP3 ADD MSTORE POP JUMP JUMPDEST PUSH1 0x0 PUSH2 0x887 PUSH1 0x4 DUP4 PUSH2 0x840 JUMP JUMPDEST SWAP2 POP PUSH2 0x892 DUP3 PUSH2 0x851 JUMP JUMPDEST PUSH1 0x20 DUP3 ADD SWAP1 POP SWAP2 SWAP1 POP JUMP JUMPDEST PUSH1 0x0 PUSH1 0xA0 DUP3 ADD SWAP1 POP PUSH2 0x8B2 PUSH1 0x0 DUP4 ADD DUP8 PUSH2 0x831 JUMP JUMPDEST PUSH2 0x8BF PUSH1 0x20 DUP4 ADD DUP7 PUSH2 0x831 JUMP JUMPDEST PUSH2 0x8CC PUSH1 0x40 DUP4 ADD DUP6 PUSH2 0x595 JUMP JUMPDEST PUSH2 0x8D9 PUSH1 0x60 DUP4 ADD DUP5 PUSH2 0x595 JUMP JUMPDEST DUP2 DUP2 SUB PUSH1 0x80 DUP4 ADD MSTORE PUSH2 0x8EA DUP2 PUSH2 0x87A JUMP JUMPDEST SWAP1 POP SWAP6 SWAP5 POP POP POP POP POP JUMP JUMPDEST PUSH32 0x4E487B7100000000000000000000000000000000000000000000000000000000 PUSH1 0x0 MSTORE PUSH1 0x11 PUSH1 0x4 MSTORE PUSH1 0x24 PUSH1 0x0 REVERT JUMPDEST PUSH1 0x0 PUSH2 0x92F DUP3 PUSH2 0x58B JUMP JUMPDEST SWAP2 POP PUSH2 0x93A DUP4 PUSH2 0x58B JUMP JUMPDEST SWAP3 POP DUP3 DUP3 LT ISZERO PUSH2 0x94D JUMPI PUSH2 0x94C PUSH2 0x8F5 JUMP JUMPDEST JUMPDEST DUP3 DUP3 SUB SWAP1 POP SWAP3 SWAP2 POP POP JUMP JUMPDEST PUSH1 0x0 PUSH2 0x963 DUP3 PUSH2 0x58B JUMP JUMPDEST SWAP2 POP PUSH2 0x96E DUP4 PUSH2 0x58B JUMP JUMPDEST SWAP3 POP DUP3 PUSH32 0xFFFFFFFFFFFFFFFFFFFFFFFFFFFFFFFFFFFFFFFFFFFFFFFFFFFFFFFFFFFFFFFF SUB DUP3 GT ISZERO PUSH2 0x9A3 JUMPI PUSH2 0x9A2 PUSH2 0x8F5 JUMP JUMPDEST JUMPDEST DUP3 DUP3 ADD SWAP1 POP SWAP3 SWAP2 POP POP JUMP INVALID LOG2 PUSH5 0x6970667358 0x22 SLT KECCAK256 0xE7 PUSH15 0xF1D2D322B03FF03A2E4D638D551F00 CODESIZE STOP SWAP14 0x5E 0xF7 0xC4 0xD4 0xEE 0xD9 GAS 0xDA DUP1 SWAP15 DUP9 DELEGATECALL PUSH5 0x736F6C6343 STOP ADDMOD 0xE STOP CALLER "
				},
				"gasEstimates": {
					"creation": {
						"codeDepositCost": "506400",
						"executionCost": "24810",
						"totalCost": "531210"
					},
					"external": {
						"onERC1155Received(address,address,uint256,uint256,bytes)": "infinite",
						"parentNFT()": "infinite",
						"stake(uint256,uint256)": "infinite",
						"stakes(address)": "infinite",
						"stakingTime(address)": "2836",
						"unstake()": "infinite"
					}
				},
				"methodIdentifiers": {
					"onERC1155Received(address,address,uint256,uint256,bytes)": "f23a6e61",
					"parentNFT()": "b8e33fb2",
					"stake(uint256,uint256)": "7b0472f0",
					"stakes(address)": "16934fc4",
					"stakingTime(address)": "583d42fd",
					"unstake()": "2def6620"
				}
			},
			"storageLayout": {
				"storage": [
					{
						"astId": 239,
						"contract": "staking.sol:NftStaker",
						"label": "parentNFT",
						"offset": 0,
						"slot": "0",
						"type": "t_contract(IERC1155)121"
					},
					{
						"astId": 251,
						"contract": "staking.sol:NftStaker",
						"label": "stakes",
						"offset": 0,
						"slot": "1",
						"type": "t_mapping(t_address,t_struct(Stake)246_storage)"
					},
					{
						"astId": 255,
						"contract": "staking.sol:NftStaker",
						"label": "stakingTime",
						"offset": 0,
						"slot": "2",
						"type": "t_mapping(t_address,t_uint256)"
					}
				],
				"types": {
					"t_address": {
						"encoding": "inplace",
						"label": "address",
						"numberOfBytes": "20"
					},
					"t_contract(IERC1155)121": {
						"encoding": "inplace",
						"label": "contract IERC1155",
						"numberOfBytes": "20"
					},
					"t_mapping(t_address,t_struct(Stake)246_storage)": {
						"encoding": "mapping",
						"key": "t_address",
						"label": "mapping(address => struct NftStaker.Stake)",
						"numberOfBytes": "32",
						"value": "t_struct(Stake)246_storage"
					},
					"t_mapping(t_address,t_uint256)": {
						"encoding": "mapping",
						"key": "t_address",
						"label": "mapping(address => uint256)",
						"numberOfBytes": "32",
						"value": "t_uint256"
					},
					"t_struct(Stake)246_storage": {
						"encoding": "inplace",
						"label": "struct NftStaker.Stake",
						"members": [
							{
								"astId": 241,
								"contract": "staking.sol:NftStaker",
								"label": "tokenId",
								"offset": 0,
								"slot": "0",
								"type": "t_uint256"
							},
							{
								"astId": 243,
								"contract": "staking.sol:NftStaker",
								"label": "amount",
								"offset": 0,
								"slot": "1",
								"type": "t_uint256"
							},
							{
								"astId": 245,
								"contract": "staking.sol:NftStaker",
								"label": "timestamp",
								"offset": 0,
								"slot": "2",
								"type": "t_uint256"
							}
						],
						"numberOfBytes": "96"
					},
					"t_uint256": {
						"encoding": "inplace",
						"label": "uint256",
						"numberOfBytes": "32"
					}
				}
			},
			"userdoc": {
				"kind": "user",
				"methods": {},
				"version": 1
			}
		}
	}
}